:100000000C949E010C94B0010C94B0010C94530D0F
:100010000C94FE360C94B0010C94B0010C94B00119
:100020000C94B0010C94B0010C94B0010C944C2CC5
:100030000C94B0010C94B0010C94B0010C94B0017C
:100040000C947C2E0C94B0010C940E270C94D026AA
:100050000C94B0010C94B0010C94B0010C94B0015C
:100060000C94B0010C94B0017704940C940C8104AE
:100070008E049B04A804940CAC04940CBA04940C55
:10008000C404CE04FF04940C940C940CD804E5042E
:10009000F204242227222A222D2230223322362241
:1000A00039223C223F224222332745277E277E27C2
:1000B0007E277E277E277E277E277E277E277E2718
:1000C0004B274D274F275127532755275727592768
:1000D0007E275D275F2761276327652767277E27A0
:1000E0006927DF29E529E829EB29F029F829002AE1
:1000F000932A932A932A0D2A102A192A222A932A0C
:10010000932A932A932A932A932A2E2A382A442A16
:100110004C2A4F2A582A612A672A932A932A702A3E
:10012000792A842A084AD73B3BCE016E84BCBFFDA6
:10013000C12F3D6C74319ABD56833DDA3D00C77FB7
:1001400011BED9E4BB4C3E916BAAAABE0000008050
:100150003F05A84CCDB2D44EB93836A9020C50B9DF
:10016000918688083CA6AAAA2ABE000000803F000B
:100170007C413A007C4F763A007C57434F3A007CF2
:10018000506E3A007C46533A007C42663A007C57F7
:10019000506F733A007C4D506F733A00536C656535
:1001A0007000446F6F723A00436865636B00416C86
:1001B00061726D00486F6D65004A6F6700486F6C33
:1001C000643A0052756E0049646C65005B4F505490
:1001D0003A005B5645523A4475655F312D312E44E5
:1001E00075652050726F3A00244E00204D00204764
:1001F0000020530020460020540033382E005B4777
:10020000433A47005B544C4F3A005B4739323A005F
:100210003330003238005B47005B5052423A005B9B
:10022000484C503A242420242320244720244920C9
:10023000244E2024783D76616C20244E783D6C69F4
:100240006E6520244A3D6C696E652024534C502015
:100250002443202458202448207E2021203F20634E
:1002600074726C2D785D0D0A000D0A4772626C2065
:100270004475655F312D31205B27242720666F721E
:100280002068656C705D0D0A00536C656570696E61
:100290006700526573746F72696E67207370696E60
:1002A000646C6500526573746F72696E6720646573
:1002B0006661756C74730050676D20456E64004311
:1002C0006865636B204C696D69747300436865638E
:1002D0006B20446F6F720044697361626C656400E7
:1002E000456E61626C65640043617574696F6E3A56
:1002F00020556E6C6F636B656400272448277C274C
:1003000024582720746F20756E6C6F636B005265E4
:1003100073657420746F20636F6E74696E75650009
:100320005B4D53473A00414C41524D3A000D0A0093
:100330006572726F723A006F6B0D0A0011241FBE56
:10034000CFEFD8E0DEBFCDBF27E0A0E0B1E001C035
:100350001D92AF35B207E1F70E9432100C94D23EE5
:100360000C94000088B183FB882780F90895439896
:1003700008953B9A0C94B70190910F06911109C012
:10038000811103C00E94B70102C086FD439A1092FA
:1003900019060895CF93DF931F92CDB7DEB79091E2
:1003A0000E06923049F089830E947F2189810F9047
:1003B000DF91CF910C94BC010F90DF91CF91089504
:1003C000F999FECF92BD81BD81E08FBB80B50895C4
:1003D000F894F999FECF92BD81BD81E08FBB80B5C5
:1003E0008627482F082E000C550B262F30E024239B
:1003F0003523232B39F06F3F19F060BD84E006C030
:1004000084E104C0882321F060BD84E28FBBF99AA7
:10041000789408958F929F92AF92BF92CF92DF927D
:10042000EF92FF920F931F93CF937C014A016B01D0
:10043000C40ED51E8B01C0E05C01A61AB70AC80124
:100440008A0D9B1D0C151D0599F0C11108C02C2F9C
:10045000CC0F330B232F221F2227221F01C021E0A4
:10046000F80161918F01C22FC60F0E94E801E7CF0A
:100470006C2FC701880D991DCF911F910F91FF908F
:10048000EF90DF90CF90BF90AF909F908F900C94A3
:10049000E8018F929F92AF92BF92CF92DF92EF923C
:1004A000FF920F931F93CF934B017A016C01C40EFF
:1004B000D51E8C01C0E05B01A81AB90AC501800FE6
:1004C000911F0C151D0599F00E94E001C11108C093
:1004D0002C2FCC0F330B232F221F2227221F01C0CA
:1004E00021E0C22FC80FF80181938F01E7CFC4012B
:1004F0008E0D9F1D0E94E00121E030E0C81711F031
:1005000020E030E0C901CF911F910F91FF90EF9053
:10051000DF90CF90BF90AF909F908F9008958FE322
:10052000E6E9F5E0DF011D928A95E9F769EB75E0F0
:1005300080E00E944329811103C087E00C94F021E0
:10054000089561E171E08DEA95E00C94C3372F9234
:100550003F924F925F926F927F928F929F92AF9253
:10056000BF92CF92DF92EF92FF920F931F93CF93A0
:10057000DF93CDB7DEB7AB970FB6F894DEBF0FBEF3
:10058000CDBF7C0189E3E5EDF5E0DF011D928A95A1
:10059000E9F78AE0E6E9F5E0A6EDB5E001900D9215
:1005A0008A95E1F7F7018081843211F00C94A80C50
:1005B00081E08093D6051092D70583E08A8FF1E021
:1005C000FC8F212C312C1CA21BA21F8E1B8E1D8E7A
:1005D000CC24C394D12CBAE08B2E912C11E6A12E01
:1005E00013E0B12E8A8DF701E80FF11D0081002381
:1005F00009F427C29FEB900F9A3110F00C94860CEF
:100600008F5F8A8FAE014A5E5F4FBE01665E7F4F8D
:10061000C7010E946914882311F40C94880C4E8839
:100620005F88688C798CC301B2010E94253E0E94CC
:100630008D3B162F70E080E090E00E94BB3B9B0159
:10064000AC01C301B2010E943F3A20E030E048EC27
:1006500052E40E94573D0E94BA3D0E948D3BCB015F
:10066000073421F00D3409F4E7C030C1183209F421
:10067000C3C020F5143168F4113108F089C014307A
:1006800009F451C008F463C01A3009F444C00C9452
:10069000940C1C3109F43FC050F4163110F00C9446
:1006A000940C25E1211B2093D80526E0AAC01E3119
:1006B00091F1163209F44BC00C94940C1D3309F4DB
:1006C00095C0A0F4153379F140F41B3209F477C0DA
:1006D000113309F474C00C94940C1C3310F00C9476
:1006E000940C16531093DC0529E08BC01C3538F4AC
:1006F0001A3508F052C0103581F10C94940C1C3559
:1007000051F01F3510F00C94940C2EE5211B209312
:10071000D70525E076C0009731F42D8D21110C947A
:100720008A0C31E03D8F1093D505212F2D7F2C3180
:1007300019F01C3509F062C0009721F00A9711F0FA
:100740000C94940C610F6093D50520E05FC06D8D13
:1007500061110C948A0CA2E0AD8F1093D60516326D
:1007600009F04EC08431910559F08E31910541F068
:100770008832910529F08233910511F00C94940C84
:10078000B4010E94503E66576093D60521E03EC0FA
:1007900011511093DA0522E034C0892B29F41A553F
:1007A0001093D90523E032C06A30710511F00C9422
:1007B000940C1A3511F40C94940C24E027C0BD8DD0
:1007C000B1110C948A0C113331F41092DB0528E03E
:1007D000E3E0ED8F1BC00A9711F00C94940CF1E04C
:1007E000F093DB0528E033E03D8F10C0892B11F03A
:1007F0000C94940C2AE00AC027E003C020E001C05A
:1008000021E0892B19F087E10C94AC0CC60102C0E1
:10081000880F991F2A95E2F72BA13CA128233923A1
:10082000232B19F085E10C94AC0CABA1BCA1A82B37
:10083000B92BBCA3ABA3D6CE892B29F7163018F45D
:10084000133058F016C0183010F40C94940C1A3071
:10085000F0F01E3159F00C94940C112319F0113062
:1008600001F104C0B3E0B093DD051BC01093DD05BA
:1008700018C0143021F0153031F080E101C080E261
:100880008093DF0502C01092DF058CE00BC01930A9
:1008900021F080E48093DE0502C01092DE058DE039
:1008A00001C08BE0F60102C0EE0FFF1F8A95E2F750
:1008B0002BA13CA12E233F23232B09F0B3CF2BA147
:1008C0003CA12E2B3F2B3CA32BA38CCE802F000FC3
:1008D000990BAA0BBB0BFC01E654F109E531F105BC
:1008E00010F00C94940CEC5CFF4F0C94A53E4092DD
:1008F000E0055092E1056092E2057092E30580E028
:100900007FC04092E4055092E5056092E605709242
:10091000E7053F8D31603F8F81E072C04092E8056E
:100920005092E9056092EA057092EB056F8D626066
:100930006F8F82E065C04092EC055092ED056092A9
:10094000EE057092EF058F8D84608F8F83E058C025
:100950001093F00584E054C0C301B2010E94883BAB
:100960006093F1057093F2058093F3059093F4057D
:1009700085E046C04092F5055092F6056092F70575
:100980007092F80586E03CC04092F9055092FA0555
:100990006092FB057092FC0587E032C04092FD0535
:1009A0005092FE056092FF057092000688E028C014
:1009B0004092020650920306609204067092050669
:1009C0009B8D91609B8F8AE01BC0409206065092DF
:1009D00007066092080670920906AB8DA260AB8F85
:1009E0008BE00EC040920A0650920B0660920C06F5
:1009F00070920D06BB8DB460BB8F8CE001C089E0A6
:100A00008601082E02C0000F111F0A94E2F7980118
:100A100022213321232B09F07FC7F50102C0F59570
:100A2000E7958A95E2F7E0FF09C020E030E0A901F0
:100A3000C301B2010E94193B87FD70C7202A312AE9
:100A4000D1CDFB8DFF2329F02D8D211102C032E085
:100A50003D8F25FE0EC08091F1059091F205A09189
:100A6000F305B091F40581389649A849B1050CF019
:100A700057C78C8D8823E9F020FE5CC78091D8058C
:100A80008130B9F523E333E34BEC51E46091E005A9
:100A90007091E1058091E2059091E3050E94573D38
:100AA0006093E0057093E1058093E2059093E30580
:100AB00020C08091D705813031F49D8D9230C9F4EA
:100AC00020FE38C716C080919705811112C020FC06
:100AD000D5CF8091A4059091A505A091A605B091D0
:100AE000A7058093E0059093E105A093E205B093FC
:100AF000E30530FC10C08091A0059091A105A09164
:100B0000A205B091A3058093FD059093FE05A093E7
:100B1000FF05B09300068091D505843031F426FCA2
:100B200002C08CE119C7E89426F88091DA05882381
:100B300071F0813031F4A1E0A9A71EA2B2E0BDA3FB
:100B40000BC019A6E2E0EEA3F1E0FDA305C022E090
:100B500029A731E03EA31DA28091D805813021F064
:100B60006D8D6330A1F52BC0F2E0EF2EF6E0FF2E85
:100B700000E010E08B8DC82ED12CC601002E02C0E3
:100B8000959587950A94E2F780FF10C023E333E33D
:100B90004BEC51E4D7016D917D918D919C910E9418
:100BA000573DF70160837183828393830F5F1F4FEB
:100BB000F4E0EF0EF11C03301105F9F6D1CF80916E
:100BC000DB05813021F42B8D243009F0ABC68CE09D
:100BD000E9EBF5E0DE01119601900D928A95E1F7BF
:100BE0008BA19CA191FD09C09091D5059E8F9A3053
:100BF000B9F09C3509F4A8C009C18091DC058730A3
:100C000010F08DE1A9C690919C05981769F3BE017B
:100C10006F5F7F4F0E944329882309F497C6E4CF72
:100C2000AB8DA11102C08AE197C6C10180759927D9
:100C3000892B09F476CF6091F5057091F6058091C6
:100C4000F7059091F8050E94253E0E948D3B673084
:100C5000C0F68091F005843129F0823009F064C635
:100C600027FC62C6BFEA2B22662319F061506E8F03
:100C700003C0E091DC05EE8F64EE75E08E8D0E947E
:100C80004329882309F462C6B090F0054090D1054D
:100C90005090D2056090D3057090D40504EE15E015
:100CA000EDEACE2EE5E0DE2EE12CF12CFB8D8F2E31
:100CB000912CC4010E2C02C0959587950A94E2F7F9
:100CC00080FF34C024E1B21228C0D60158962D917D
:100CD0003D914D915C915B976D917D918D919C9132
:100CE0000E943F3AF801268D378D40A151A10E9404
:100CF0003F3AD8016D937D938D939C931397B2E007
:100D0000EB16F10499F4A30192010E943F3AF80115
:100D1000608371838283938309C0F801868D978DE8
:100D2000A0A1B1A180839183A283B383FFEFEF1AC7
:100D3000FF0A0C5F1F4F24E0C20ED11C33E0E31604
:100D4000F10409F0B6CF2CC16B8D662309F46BCF8B
:100D50008090D1059090D205A090D305B090D40595
:100D600002E016E0C12CD12CE12CF12C662E712C66
:100D7000F601EA56FA4FC3010E2C02C095958795ED
:100D80000A94E2F780FF2BC0A1E0B0E0AC0FBD1FDA
:100D9000AC0DBD1D2D913D914D915C916789708D7C
:100DA000818D928D0E943F3AD8012D913D914D91B8
:100DB0005C910E943F3AF801608371838283938340
:100DC000F2E0EF16F104A1F4A50194010E943F3A6C
:100DD000D8016D937D938D939C93139709C087A53C
:100DE00090A9A1A9B2A9F80180839183A283B383BA
:100DF000FFEFEF1AFF0A0C5F1F4F24E0C20ED11C59
:100E000033E0E316F10409F0B3CFC9C06D8D633050
:100E100071F48E8D8E3109F48AC0853309F4BAC01D
:100E20008C3109F0BCC064EE75E086E083C09B8D18
:100E3000992379F3A091D905AFA34090D1055090A3
:100E4000D2056090D3057090D4057DEAC72E75E079
:100E5000D72E02E016E0FE0131964F01E12CF12C75
:100E6000A92EB12CC5010E2C02C0959587950A9428
:100E7000E2F780FD0BC0F60180819181A281B381F0
:100E8000F80180839183A283B38340C0FE8DF53344
:100E9000E9F12FA1211129C0D60158962D913D913C
:100EA0004D915C915B97F4016081718182819381A6
:100EB0000E94403AD8012D913D914D915C910E9444
:100EC000403AF8016083718382839383F2E0EF16E6
:100ED000F104E1F4A30192010E94403AD8016D931C
:100EE0007D938D939C93139711C0F60120813181DE
:100EF00042815381D8016D917D918D919C910E9489
:100F0000403AF8016083718382839383FFEFEF1A85
:100F1000FF0A24E0C20ED11C0C5F1F4F34E0830E89
:100F2000911C63E0E616F10409F09CCF72CF64EEE9
:100F300075E087E00E944329882309F407C58B8D5B
:100F4000811103C01E8E1D8E2BC020E030E080E09A
:100F500090E0AB8D4A2F50E0BA01082E02C0759583
:100F600067950A94E2F760FD0EC0F901EA56FA4F60
:100F7000C788D08CE18CF28CF901EB52FA4FC7860E
:100F8000D08AE18AF28A01962C5F3F4F8330910527
:100F900019F705C08091D605823008F0C7C41E8EAF
:100FA0001091D605103521F4BB8DB111C1C440C2DA
:100FB000ED8DE23009F03CC2111104C0FB8DF1113E
:100FC00037C228C020E030E0A9016091E0057091AF
:100FD000E1058091E2059091E3050E94193B882389
:100FE00009F4A8C41C3809F40EC240F41230A1F070
:100FF0001330A9F0113009F01BC209C01E3809F4E2
:1010000002C208F4FDC11F3809F4FAC111C22B8DC8
:1010100021110EC21D8E0CC23C8D34603C8F6B8D35
:10102000662309F400CE9DA1892F90E098A78FA395
:10103000BEA1AB2FB0E0BBA7AAA781E090E08C01D6
:101040000EA002C0000F111F0A94E2F70DA002C00B
:10105000880F991F0A94E2F7082B192B862F90E02E
:1010600080239123892B09F467C48FA198A5880F49
:10107000991F880F991FFC01EB52FA4FDC01AA5609
:10108000BA4F57962D913D914D915C915A9765A518
:1010900076A587A590A90E943F3A6B017C018AA59D
:1010A0009BA5880F991F880F991FFC01EB52FA4FDF
:1010B000DC01AA56BA4F57962D913D914D915C9106
:1010C0005A9765A576A587A590A90E943F3A2B015E
:1010D0003C0127FEE5C0E89427F84CE050E062E0D0
:1010E00076E08DEA95E00E94C53E892B11F481E2FD
:1010F00033C48091D8058130B1F423E333E34BEC62
:1011000051E46091F9057091FA058091FB05909189
:10111000FC050E94573D6093F9057093FA05809392
:10112000FB059093FC058090F9059090FA05A0903E
:10113000FB05B090FC0520E030E040E850E4C5013C
:10114000B4010E94573DA50194010E94573D4B01F7
:101150005C01A7019601C701B6010E94573D9B01A2
:10116000AC01C501B4010E943F3A4B015C01A301EF
:101170009201C301B2010E94573D9B01AC01C50120
:10118000B4010E943F3A4B015C0120E030E0A9012C
:101190000E94193B87FDD2C3C501B4010E94E43D02
:1011A0004B015C01A3019201C701B6010E946515C4
:1011B0009B01AC01C501B40190580E94203B4B013A
:1011C0005C018091D605833021F4B7FAB094B7F86A
:1011D000B0948091F9059091FA05A091FB05B0912A
:1011E000FC058F8F98A3A9A3BAA320E030E0A90142
:1011F000BC01CD010E94193B87FF11C0B7FAB09422
:10120000B7F8B0948F8D98A1A9A1BAA1B0588093D6
:10121000F9059093FA05A093FB05B093FC050FA187
:1012200018A5000F111F000F111F07521A4FA5011B
:101230009401C301B2010E94573D9B01AC01C7015B
:10124000B6010E943F3A20E030E040E05FE30E94B8
:10125000573DD8011B966D937D938D939C931E975C
:101260000AA51BA5000F111F000F111F07521A4FCF
:10127000A5019401C701B6010E94573D9B01AC0135
:10128000C301B2010E94403A20E030E040E05FE359
:101290000E94573DF8016387748785879687C8C089
:1012A000FF8D8F2E912C08211921012B09F448C3A1
:1012B00021EF22228091D805813009F45AC00AA575
:1012C0001BA5000F111F000F111F07521A4FD80145
:1012D0001B962D913D914D915C911E97C301B201DA
:1012E0000E943F3A2B013C018FA198A5880F991FBE
:1012F000880F991FFC01E752FA4F5F01238534855F
:1013000045855685C701B6010E943F3AA301920167
:101310000E9465156B017C01D8011B962D913D91B2
:101320004D915C911E97F501638574858585968541
:101330000E9465154B015C016093F9057093FA05F5
:101340008093FB059093FC059B01AC01C701B6019E
:101350000E943F3A6B017C01E894F7F82AE037EDF0
:1013600043EA5BE3C701B6010E941C3D18165CF11D
:101370005FC085EDA82E85E0B82E00E010E0C40126
:10138000002E02C0959587950A94E2F780FF12C05F
:1013900023E333E34BEC51E4D5011F966D917D912E
:1013A0008D919C9152970E94573DF5016787708BF4
:1013B000818B928B0F5F1F4FF4E0AF0EB11C033097
:1013C0001105E9F67CCF20E030E040E05FE3C701A3
:1013D000B6010E941C3D18160CF489CE2FE632E1AE
:1013E00043E85AE3C501B4010E94573D9B01AC019B
:1013F000C701B6010E941C3D18160CF478CE18C027
:101400002C8D20612C8F1E58123018F43C8D3860C2
:101410003C8F6B8D662309F406CC4CE050E062E013
:1014200076E08DEA95E00E94C53E892B09F45FCEF7
:101430002C8D21708C8D80FF03C0C1018E7D03C077
:10144000C1018E7D9C7FAD8DA111937E892B09F00A
:1014500079C23E01BDE06B0E711C89E0F30111926F
:101460008A95E9F7222379F18BA19CA1867B892BB0
:1014700009F06AC28091D505853311F0811164C2EB
:101480008091A0059091A105A091A205B091A3051E
:10149000898B9A8BAB8BBC8B90919E0580919F051D
:1014A000892B8D8B65ED75E0C3010E94C50C811100
:1014B00053C28CE0E2E0F6E0ADEAB5E001900D92B7
:1014C0008A95E1F721C280914F0710919F0581FF16
:1014D00026C09091D6059150933018F0FC8DF064A1
:1014E000FC8F2B8D222339F03D8D323021F46C8D11
:1014F00060686C8F14C0103191F4909196059150F2
:101500008C8D8074933030F4882349F08C8D806208
:101510008C8F05C0811103C09C8D90629C8F80913F
:10152000F1059091F205A091F305B091F405809337
:10153000A9059093AA05A093AB05B093AC05809143
:10154000D70580939705882311F088E08D8B8091D3
:10155000E0059091E105A091E205B091E30580934B
:10156000A4059093A505A093A605B093A7058D8724
:101570009E87AF87B88BC090FD05D090FE05E090A8
:10158000FF05F0900006A70196016091A0057091FB
:10159000A1058091A2059091A3050E94193B0C8D95
:1015A0000074811103C0AC8DA5FF20C0112371F020
:1015B000BC8DB7FD0BC0002321F040E050E0BA0124
:1015C00002C0B701A601812F0E94DE2B8091FD058C
:1015D0009091FE05A091FF05B09100068093A005B3
:1015E0009093A105A093A205B093A30501110CC08F
:1015F0008091A0059091A105A091A205B091A305AD
:10160000898B9A8BAB8BBC8B809101068093A8054C
:101610008091DF0590919F05981751F049895A896B
:101620006B897C890E94DE2B8091DF0580939F056A
:101630009D8980919F05892B8D8B8091DE059091EE
:101640009E05981771F00E94CA018091DE058111F4
:1016500003C010929E0505C090919E05892B809332
:101660009E059D8980919E05892B8D8B8091D50546
:10167000843051F46091F5057091F6058091F7057D
:101680009091F8050E94A4138091DA0580939A0541
:101690008091D80580939805ED8DE33071F58091A8
:1016A000DB0580939B05811108C010920A061092F9
:1016B0000B0610920C0610920D06C0900A06D090F0
:1016C0000B06E0900C06F0900D06A70196016091C4
:1016D000D1057091D2058091D3059091D4050E94D7
:1016E000193B882351F0C092D105D092D205E092E7
:1016F000D305F092D4050E9458378091DC05909173
:101700009C05981769F080939C058CE0FE0131964A
:10171000A9EBB5E001900D928A95E1F70E94583748
:101720008091D905809399058091D5058632F1F194
:1017300038F48C3109F18E31F9F08A3069F04FC0FC
:101740008C35D1F1863609F441C0883209F047C0A2
:101750006DEA75E087E02DC064EE75E08E8D0E9425
:10176000B72780919C05FE8D8F1339C08CE0E4EE85
:10177000F5E0A9EBB5E025C08D8981608D8B2D8DBD
:10178000222329F0B30182E096E00E948C10B3017D
:1017900084EE95E00E948C108CE0E4EEF5E0ADEA7A
:1017A000B5E001900D928A95E1F719C06DEA75E0F8
:1017B00086E00E94B72713C08CE0E2E0F6E0A5ECDB
:1017C000B5E001900D928A95E1F707C08CE0E5EC59
:1017D000F5E0DF011D928A95E9F70E945837809164
:1017E000D60580939605803509F448C0BD8DB2308A
:1017F00009F044C0813029F0811109C08D898160D0
:101800008D8BB30182E096E00E948C1029C082503B
:101810008230D8F4E090F905F090FA050091FB05CC
:101820001091FC05EC8DE2FB222420F82F9289A474
:10183000AEA0CDA024EE35E04DEA55E0B30182E044
:1018400096E00E94BB100F900BC08D8984608D8B39
:101850004C8DB30182E096E00E94DD1381110AC035
:101860008CE0E2E0F6E0ADEAB5E001900D928A95F9
:10187000E1F704C0813011F40E94A1028091DD05DE
:1018800080939D05882309F467C00E947F21809181
:101890009D0590910E06833041F4923099F188E0D5
:1018A0000E9453380E94EC1F2DC081E08093960562
:1018B00010929A05109299051092970510929C0526
:1018C00010929F0510929E0584E6809315068093E2
:1018D000160680931706923091F069EB75E080E070
:1018E0000E944329882391F10E94583740E050E03C
:1018F000BA0180E00E94B62B80E00E94BC0188E023
:101900000E94132210929D0580E026C081E024C031
:1019100082E022C088E120C089E11EC084E01CC0B2
:101920008BE11AC085E218C084E116C08EE114C0B4
:101930008FE112C086E110C080E20EC082E20CC0CE
:1019400083E20AC084E208C080E106C087E004C0E8
:101950001A8E1C8E0C94E102AB960FB6F894DEBF83
:101960000FBECDBFDF91CF911F910F91FF90EF90F0
:10197000DF90CF90BF90AF909F908F907F906F90AF
:101980005F904F903F902F9008950F931F93CF93A8
:10199000DF938C01FB0183859485A585B685F801CD
:1019A00080839183A283B3838085846080878091C4
:1019B0004F07EB01AD9685FD09C0B801CE010E942D
:1019C0008C10C0910E06C11108C009C0CE010E9442
:1019D0001838882391F3CFE00DC0C0E00BC00E94FF
:1019E000D817892BD1F380E280930E060E94452FF1
:1019F0000E94062C8C2FDF91CF911F910F9108959B
:101A0000EBE6F0E08081897E8083E8E6F0E080818B
:101A10008E7F8083089584B1897E84B985B1866183
:101A200085B980914F0783FF0BC080916B00866161
:101A300080936B00809168008160809368000895B6
:101A40000C94000DEF92FF920F931F93CF93DF93AF
:101A5000C3B1C67180914F0786FD02C086E1C827D9
:101A6000CC23C1F000E010E0D0E0EE24E394F12CB0
:101A7000802F0E94C02A8C2339F0C701002E01C09C
:101A8000880F0A94EAF7D82B0F5F1F4F0330110518
:101A900079F701C0D0E08D2FDF91CF911F910F9189
:101AA000FF90EF9008951F920F920FB60F9211249E
:101AB0002F933F934F935F936F937F938F939F9356
:101AC000AF93BF93EF93FF9380910E06813049F05F
:101AD00080910201811105C00E944B1481E00E9497
:101AE000113AFF91EF91BF91AF919F918F917F91AB
:101AF0006F915F914F913F912F910F900FBE0F907B
:101B00001F9018952F923F924F925F926F927F9203
:101B10008F929F92AF92BF92CF92DF92EF92FF92FD
:101B20000F931F93CF93DF93CDB7DEB7A3970FB675
:101B3000F894DEBF0FBECDBF90910F06911158C231
:101B400089A39E01235F3F4F3A8F298F89E0D901F6
:101B50001D928A95E9F786E08D8B2EE2822E27E092
:101B6000922EFE0176965F0100E010E0C12CD12C90
:101B70007601F9A12F2E312C702E802F0E94AC2AD5
:101B8000D5018C930230110551F080E00E94AC2AFF
:101B9000682E81E00E94AC2A8629F5018083C1016C
:101BA00002C0959587957A94E2F780FF17C020E0F0
:101BB00030E040EC5FEBD4016D917D918D919C9173
:101BC0000E94573D2B013C019B01AC01C701B601AE
:101BD0000E941C3D181614F0620173010F5F1F4F25
:101BE000BFEFAB1ABB0AE4E08E0E911C0330110567
:101BF00019F640905507509056076090570770901F
:101C00005807F4E0FB8F01E061E171E0CE0101963D
:101C10000E94C3379E012F5F3F4F4901A12CB12C79
:101C20001BA210E0A701960150582D8F3E8F4F8FB9
:101C300058A3AC8EC1010A2C02C0959587950A94D1
:101C4000E2F780FF72C03BA13F5F3BA3A114B10448
:101C5000F1F481E191E00E94FC37609311017093EF
:101C6000120180931301909314019B01AC0188270A
:101C70009927DC01821B930BA40BB50B80931501F4
:101C800090931601A0931701B093180120C03C8DCA
:101C90003130A9F481E191E00E94DE3760931501B3
:101CA00070931601809317019093180160931101AE
:101CB00070931201809313019093140108C0109245
:101CC000190110921A0110921B0110921C018091AF
:101CD000500790E00C8C02C0959587950A94E2F726
:101CE00080FF08C001110FC0F401C082D182E282DE
:101CF000F38213C0002339F0D401CD92DD92ED922E
:101D0000FC9213970AC02D8D3E8D4F8D58A1D401A2
:101D10002D933D934D935C931397E6E1F0E0EC0F28
:101D2000FD1FEA0DFB1D8081182BBFEFAB1ABB0A0C
:101D3000E4E08E0E911CF3E0AF16B10409F079CF08
:101D40002BA1622F70E080E090E00E94B93B0E94DE
:101D5000E43D9B01AC0110931406C301B2010E9443
:101D6000573D6D877E878F87988BBE01635F7F4F5E
:101D7000CE0101960E940A1934E0309312060E94A7
:101D8000452F0E94062C002331F10E94220D788DF0
:101D900070956F899E89692B6095FE01769620E08B
:101DA00030E090E04191412379F0AC01022E02C075
:101DB000559547950A94E2F740FF06C02230310559
:101DC00011F4172301C016232F5F3F4F2330310535
:101DD00049F7109314060E94452F809103018473E4
:101DE00039F11091030114FF03C086E00E94113AFB
:101DF00015FF03C087E00E94113A011107C00E943D
:101E0000220D49A1842339F088E003C012FF03C0EA
:101E100089E00E94113A80910201882329F00E94F2
:101E20004B140E94EC1FE4C084E00E94073A04C0F7
:101E3000812F8C7109F0A7CF0E94CC2E8091590779
:101E400090915A070E945A1551E00527C9F020E0E9
:101E500030E040EA50E460915B0770915C0780914C
:101E60005D0790915E070E94573D6B017C01409099
:101E7000510750905207609053077090540710C05C
:101E8000C0905B07D0905C07E0905D07F0905E0724
:101E9000409055075090560760905707709058072C
:101EA0008B8D81508B8F8111AFCE81E1C82E81E067
:101EB000D82E9AE0E92E97E0F92E00E010E0C1015B
:101EC000002E02C0959587950A94E2F780FF82C0A4
:101ED0008091500790E0002E02C0959587950A9456
:101EE000E2F780FF17C020915B0730915C074091BB
:101EF0005D0750915E07D70194966D917D918D910C
:101F00009C9197970E94403AF7012081318142814C
:101F1000538110C080915B0790915C07A0915D0791
:101F2000B0915E07BC01CD019058D7012D913D9134
:101F30004D915C910E94573D0E94273D4B015C01F1
:101F400001151105F9F481E191E00E94FC372401AB
:101F50003501460E571E681E791E4092110150929F
:101F600012016092130170921401861A970AA80A4E
:101F7000B90A8092150190921601A0921701B092B1
:101F8000180128C0013009F581E191E00E94DE3797
:101F90002B013C01480C591C6A1C7B1C409211010E
:101FA000509212016092130170921401DC01CB0176
:101FB00088199909AA09BB09809315019093160104
:101FC000A0931701B093180105C0F6018082918299
:101FD000A282B3820F5F1F4FF4E0CF0ED11C24E02A
:101FE000E20EF11C0330110509F069CF10921206C0
:101FF000A3960FB6F894DEBF0FBECDBFDF91CF9191
:102000001F910F91FF90EF90DF90CF90BF90AF9016
:102010009F908F907F906F905F904F903F902F9008
:1020200008950E9418388823E1F081E0809311061A
:1020300080910E06883039F00E944B1482E00E9495
:10204000113A0C94EC1F88E00E9453380E94EC1F58
:1020500080910F06811105C080910E068111F6CF87
:10206000EBCF08950E94A4260E949F2A0E94FF2E73
:102070000E94DE368CE0E1E1F1E0DF011D928A95FD
:10208000E9F7789410920E0680914F0784FF03C001
:1020900081E080930E068EE0E82E86E0F82E91E136
:1020A000D92EC4E605E011E0DCE080910E06F701D0
:1020B0009D2D11929A95E9F780930E06C09315060F
:1020C000C0931606C0931706D801ED2F1D92EA950E
:1020D000E9F710920401109203011092020110928C
:1020E0000101109200010E948F270E948F020E941E
:1020F000DC2A0E94B9010E940B0D0E94251E0E943D
:10210000B2170E94CC2E0E94CE1C0E94A1020E94F7
:1021100049220E94F020C9CF0F931F93CF93DF93E2
:10212000EC018B0180914F0785FF07C080910E065F
:10213000803219F0CE010E94111080910E0682307B
:10214000A9F00E94EC1F80910F0681110FC00E9420
:102150000118882319F00E94451EF3CFB801CE0163
:10216000DF91CF911F910F910C940A19DF91CF91BC
:102170001F910F9108952F923F924F925F926F920D
:102180007F928F929F92AF92BF92CF92DF92EF9207
:10219000FF920F931F93CF93DF93CDB7DEB7E097F6
:1021A0000FB6F894DEBF0FBECDBF988B8F877E87AA
:1021B0006D875A8B498B3901E986FA860B871C8714
:1021C0008D8A26962FAD26972B8B34E0C39E600117
:1021D0001124CA018C0D9D1D9A8F898FD301AC0DDE
:1021E000BD1DBC8FAB8F2D903D904D905C90FC0140
:1021F0002081318142815381C201B1010E94403A64
:102200006D8F7E8F8F8F98A3F4E0AF9E8001112495
:1022100029893A89200F311F3AA329A3C301800FCE
:10222000911F9CA38BA3DC018D909D90AD90BC90E1
:10223000F9012081318142815381C501B4010E949D
:10224000403A6DA37EA38FA398A7D201C101B058D5
:102250008D839E83AF83B887D501C401B05889832D
:102260009A83AB83BC83EF85F889EC0DFD1D2D8D22
:102270003E8D4F8D58A160817181828193810E9432
:102280003F3A6B017C01EF85F889E00FF11F2DA12A
:102290003EA14FA158A560817181828193810E94E6
:1022A0003F3A4B015C01A70196016D817E818F81D0
:1022B00098850E94573D2B013C01A501940169813D
:1022C0007A818B819C810E94573D9B01AC01C301A7
:1022D000B2010E94403A2B013C01A50194016D819D
:1022E0007E818F8198850E94573D4B015C01A7013B
:1022F000960169817A818B819C810E94573D9B0167
:10230000AC01C501B4010E943F3AA30192010E94B1
:10231000B33A6B017C019B89992399F02DEB37E34C
:1023200046E055EBC701B6010E941C3D87FD1DC06C
:102330002BED3FE049EC50E4C701B6010E943F3A63
:1023400012C02DEB37E346E055E3C701B6010E940A
:10235000193B181654F02BED3FE049EC50E4C7014F
:10236000B6010E94403A6B017C0180904307909037
:102370004407A0904507B090460729853A854B85CC
:102380005C85CA01B9010E94403AA50194010E94EE
:102390003F3A9B01AC01C501B4010E94573D0E9428
:1023A000E43D4B015C0120E030E040E05FE3C70129
:1023B000B6010E94573D29853A854B855C850E9470
:1023C000573D9F77A50194010E94203B0E94F63B58
:1023D0000E948D3B7C8B6B8BDB01AB2BF1F46D850D
:1023E0007E858F859889E0960FB6F894DEBF0FBE84
:1023F000CDBFDF91CF911F910F91FF90EF90DF90B4
:10240000CF90BF90AF909F908F907F906F905F9094
:102410004F903F902F900C948C10ED85FE85108589
:102420004B01A12CB12C13FF16C0C501B4010E94B1
:10243000B93B9B01AC01AD85BE856D917D918D91C0
:102440009C910E94573DED85FE8560837183828358
:102450009383177F1087C501B4010E94B93B2B01FC
:102460003C019B01AC01C701B6010E94203B69877A
:102470007A878B879C872D89F4E02F9F4001112458
:1024800009891A89080D191DEF85F889E80DF91DCC
:10249000D8012D913D914D915C9160817181828136
:1024A00093810E943F3AA30192010E94203B6DA7B5
:1024B0007EA78FA798AB29853A854B855C85CA0195
:1024C000B9010E94573D9B01AC0160E070E080E0E3
:1024D00090E40E943F3A6B017C012BEA3AEA4AE21F
:1024E0005EE369857A858B859C850E94573D4B010B
:1024F0005C0120E030E040E850E4C701B6010E94F2
:10250000403A9B01AC01C501B4010E94573D6D8B5F
:102510007E8B8F8B988F20E030E040E05FE3C70137
:10252000B6010E94573D69A77AA78BA79CA7712C7B
:1025300022242394312CEB89FC892E163F0609F4C2
:102540004ECFBBE0B71508F444C029A53AA54BA56A
:102550005CA569817A818B819C810E94573D6B01CA
:102560007C012D893E894F89588D6D817E818F81B7
:1025700098850E94573DA70196010E94403A7B0131
:102580006C0129A53AA54BA55CA56D817E818F8143
:1025900098850E94573D4B015C012D893E894F89EA
:1025A000588D69817A818B819C810E94573D9B0166
:1025B000AC01C501B4010E943F3A6D837E838F83D5
:1025C000988773944701560189829A82AB82BC82B4
:1025D00062C0B10180E090E00E94B93B29853A8554
:1025E0004B855C850E94573D6B017C010E941D3B21
:1025F00069837A838B839C83C701B6010E94DA3D8D
:102600004B015C01EB8DFC8DC080D180E280F380BA
:10261000F7FAF094F7F8F094ABA1BCA14D905D905F
:102620006D907C9029813A814B815C81C701B60114
:102630000E94573D6D837E838F839887A501940107
:10264000C301B2010E94573D9B01AC016D817E81A7
:102650008F8198850E94403A6D837E838F8398870F
:10266000A5019401C701B6010E94573D6B017C0191
:1026700029813A814B815C81C301B2010E94573D9F
:102680009B01AC01C701B6010E943F3A69837A837E
:102690008B839C83712C2D813E814F8158856D8D5C
:1026A0007E8D8F8D98A10E94403AE98DFA8D6083CE
:1026B00071838283938329813A814B815C816DA1EF
:1026C0007EA18FA198A50E94403AA9A1BAA16D93BD
:1026D0007D938D939C9313972DA53EA54FA558A947
:1026E000F80160817181828193810E94403AD80112
:1026F0006D937D938D939C9313976D857E858989CA
:102700009A890E948C1080910F06811104C0BFEF3E
:102710002B1A3B0A10CFE0960FB6F894DEBF0FBE1F
:10272000CDBFDF91CF911F910F91FF90EF90DF9080
:10273000CF90BF90AF909F908F907F906F905F9061
:102740004F903F902F900895CF93DF9300D000D00B
:10275000CDB7DEB720910E06223099F069837A83D7
:102760008B839C830E947F2140E069817A818B81E9
:102770009C810F900F900F900F90DF91CF910C9450
:1027800029150F900F900F900F90DF91CF91089522
:102790000E94000D81E00E94820D82E00E94820D65
:1027A0000E94EC1F80910F06811106C00E94A102B9
:1027B0000E94CE1C0C940B0D0895EF92FF920F9384
:1027C0001F93CF9320910E06223009F45DC0C42FD1
:1027D0007B018C010E947F2180910F06811113C023
:1027E00010921306C3FB882780F90E94131E0E94D3
:1027F0002A1E882351F084E00E94113A0E94EC1FA7
:1028000080E00E94131E82E040C0B701C8010E9410
:102810008C1081E08093040182E00E9453380E9472
:10282000EC1F80910F068111EECF80910E06811171
:10283000F6CF80910401813081F4C4FF0AC08CE09E
:10284000E1E1F1E0A5E0B1E001900D928A95E1F7B8
:1028500007C085E00E94113A03C081E0809313060F
:102860001092040180E00E94131E0E94EC1F0E943F
:10287000CC2E0E94B2170E94CE1C0E94632381E0DE
:1028800090911306911101C080E0CF911F910F919B
:10289000FF90EF9008958091030184FD19C080E1BD
:1028A0000E9453380E94D62A0E94B70190910E06CA
:1028B000892F8C7221F480911206867049F0943031
:1028C00011F486E001C083E00E94113A0C941E2CA2
:1028D00008954F925F926F927F92AF92BF92CF9284
:1028E000DF92EF92FF920F931F93CF93DF936C01D0
:1028F000FB015A018081D601A80FB11D9C918D0169
:102900009D3231F40E5F1F4F11969C91D1E00AC0A9
:102910009B3219F00F5F1F4F04C00E5F1F4F1196BF
:102920009C91D0E0512C612CC0E020E030E0A90166
:10293000780160ED762E790E89E08715D8F06394E2
:10294000A8E0A61598F05110C150A5E0B0E00E9493
:10295000AB3EDC01CB01880F991FAA1FBB1F9C0156
:10296000AD01270D311D411D511D0BC0511009C076
:10297000CF5F07C0BEEF7B1209C0511007C05524BE
:1029800053940F5F1F4FD7019C91D2CF662009F45B
:1029900050C07F01CA01B9010E94B93B2B013C0123
:1029A00020E030E0A9010E94193B882349F1CF3F84
:1029B00064F42AE037ED43E25CE3C301B2010E9414
:1029C000573D2B013C01CE5FF2CFCF3F59F42DECA8
:1029D0003CEC4CEC5DE3C301B2010E94573D2B017E
:1029E0003C010EC0CC2361F020E030E040E251E435
:1029F000C301B2010E94573D2B013C01C150F2CFEF
:102A0000DD2351F077FA709477F87094F5014082E5
:102A100051826282738206C0D5014D925D926D92A1
:102A20007C9213970C191D090150F701008381E076
:102A300001C080E0DF91CF911F910F91FF90EF9047
:102A4000DF90CF90BF90AF907F906F905F904F904E
:102A500008950F931F93CF93C42F20E030E040EAF6
:102A600051E40E94573D0E94063B0E948D3B8B0122
:102A700001151105D9F080910F06811117C0C11100
:102A800003C00E94EC1F06C00E944D1E80911006DC
:102A900081FD0CC02FEF80E792E0215080409040F4
:102AA000E1F700C0000001501109E2CFCF911F9162
:102AB0000F910895009741F0EFE9FFE03197F1F7AA
:102AC00000C000000197F6CF08958F929F92AF92B9
:102AD000BF92CF92DF92EF92FF9269017A019B0140
:102AE000AC010E94573D4B015C01A7019601C70153
:102AF000B6010E94573D9B01AC01C501B4010E9483
:102B0000403AFF90EF90DF90CF90BF90AF909F90B2
:102B10008F900C94E43D4F925F926F927F92AF92B0
:102B2000BF92CF92DF92EF92FF920F931F93CF93BA
:102B3000DF93EC018C015C018CE0A80EB11CC12C70
:102B4000D12C7601F80141905190619071908F01E4
:102B500020E030E0A901C301B2010E94193B8823A3
:102B600071F0A3019201C301B2010E94573D9B0184
:102B7000AC01C701B6010E94403A6B017C010A1505
:102B80001B0501F7C701B6010E94E43D2B013C0182
:102B90009B01AC0160E070E080E89FE30E94203B75
:102BA0006B017C019B01AC01688179818A819B81E9
:102BB0000E94573D688379838A839B83A70196018E
:102BC0006C817D818E819F810E94573D6C837D83C6
:102BD0008E839F83A7019601688579858A859B8569
:102BE0000E94573D688779878A879B87C301B20116
:102BF000DF91CF911F910F91FF90EF90DF90CF90D9
:102C0000BF90AF907F906F905F904F9008956F92BC
:102C10007F928F929F92AF92BF92CF92DF92EF926C
:102C2000FF920F931F93CF93DF93EB018C015B0116
:102C30008CE0A80EB11C89E9682E96E7792E26E96A
:102C4000822E3EE7932EC990D990E990F99020E02A
:102C500030E0A901C701B6010E94193B8823B9F0F1
:102C6000A7019601F80160817181828193810E94A0
:102C7000203B6B017C01E894F7F8A7019601B301B2
:102C8000C4010E94193B87FD02C0360147010C5F59
:102C90001F4FCA15DB05B9F6B301C401DF91CF910F
:102CA0001F910F91FF90EF90DF90CF90BF90AF906A
:102CB0009F908F907F906F9008952F923F924F92A8
:102CC0005F926F927F928F929F92AF92BF92CF92BC
:102CD000DF92EF92FF920F931F93CF93DF93C091F8
:102CE0003B01C11101C0C0E1C150D0913901CD17E4
:102CF00009F41BC1EC2EF12C22E3C29F80011124A8
:102D0000035C1E4FF801A688B788C08CD18C628DF9
:102D1000738D848D958D9B01AC010E94403AF80122
:102D2000268D378D40A151A10E94573D4B018C014A
:102D30009B01AC01B501C6010E94193B87FD02C091
:102D40005401680182E38E9DF0018F9DF00D1124E6
:102D5000E35CFE4FC501D601828B938BA48BB58BB0
:102D6000C11101C0C0E1C150CD1761F022E32E9D19
:102D7000C0012F9D900D11249C01235C3E4F7901D1
:102D8000D2E333C080913C01D8135EC00E94212F52
:102D90005BC0AC2EB12CDA9DC001DB9D900D1124DF
:102DA000FC01E35CFE4F6F01C11101C0C0E1C150E5
:102DB00080913C01C81302C00E94212FDA9D80013E
:102DC000DB9D100D1124035C1E4FF8018688978847
:102DD000A08CB18CA501940162897389848995893D
:102DE0000E94193B811106C0760180913901C813F8
:102DF000D0CF2AC0F801628D738D848D958D9B0193
:102E0000AC010E94403AF801268D378D40A151A1B6
:102E10000E94573DF70122893389448955890E94D0
:102E2000403A2B013C01A50194010E94193BF80195
:102E300087FF05C0428A538A648A758AD5CF828A01
:102E4000938AA48AB58AD0CFD0913901F2E3DF9F6B
:102E500080011124035C1E4FC1E0CD0FC03109F485
:102E6000C0E020903B0182E3382EC21509F45BC01C
:102E7000CC2ED12C3C9CC0013D9C900D11249C017A
:102E8000235C3E4F7901F801428853886488758835
:102E9000F90182889388A488B588A5019401C301AB
:102EA000B2010E94193B87FF24C0F801628D738D27
:102EB000848D958D9B01AC010E94403AF801268DCE
:102EC000378D40A151A10E94573D9B01AC01C30128
:102ED000B2010E94403A2B013C01A50194010E94DD
:102EE000193B87FF06C0F701428A538A648A758AB4
:102EF000DC2F3C9CF0013D9CF00D1124E35CFE4F67
:102F000026893789408D518D628973898489958995
:102F10000E94193B811101C0DC2FCF5FC03109F441
:102F2000C0E08701A2CFD0933901DF91CF911F91EB
:102F30000F91FF90EF90DF90CF90BF90AF909F9058
:102F40008F907F906F905F904F903F902F9008955B
:102F500010923C0110923B0181E080933A01109263
:102F6000390108958CE1EDE1F1E0DF011D928A95D0
:102F7000E9F70C94A81790913C0180913B018917C7
:102F800069F081E0890F803109F480E020913901F6
:102F9000921302C08093390180933C01089580917F
:102FA0003B0122E3829FC0011124835C9E4F089560
:102FB00080913C0190913B01981739F022E3829F68
:102FC000C0011124835C9E4F089580E090E0089535
:102FD000E0913C01EF5FE03109F4E0E080913B01DA
:102FE000E81759F082E3E89FF0011124E35CFE4FFB
:102FF0006289738984899589089560E070E0CB01C6
:10300000089581E020913C0190913A01291380E0DC
:103010000895BF92CF92DF92EF92FF920F931F938A
:10302000CF93DF937C01FC0102A513A5D4A5C5A510
:10303000818980FF18C06091160670E080E090E002
:103040000E94BB3B2AE037ED43E25CE30E94573D20
:103050009B01AC01B8018D2F9C2F0E94573D8B0125
:10306000D82FC92F2DC082FD17C06091150670E0C2
:1030700080E090E00E94BB3B2AE037ED43E25CE356
:103080000E94573D9B01AC01B8018D2F9C2F0E94DF
:10309000573D8B01D82FC92FF701B6A0C7A0D0A4E8
:1030A000F1A42B2D3C2D4D2D5F2DB8018D2F9C2F84
:1030B0000E941C3D181624F40B2D1C2DDD2DCF2D48
:1030C00020E030E040E85FE3B8018D2F9C2F0E94A4
:1030D0001C3D181624F000E010E0D0E8CFE3B80162
:1030E0008D2F9C2FDF91CF911F910F91FF90EF902B
:1030F000DF90CF90BF9008955F926F927F928F92F2
:103100009F92AF92BF92CF92DF92EF92FF920F9376
:103110001F93CF93DF93C0913C0150903B0189E90D
:10312000F82E06E716E9DEE792E3692EC51509F4E5
:1031300055C0AC2EB12C6A9CC0016B9C900D112423
:103140009C01235C3E4F6901C9010E940918762E3B
:10315000872E982EE92E2F2D302F412F5D2F0E9484
:103160001C3D18164CF42F2D302F412F5D2F6F2D45
:10317000702F812F9D2F08C0272D382D492D5E2DB2
:10318000672D782D892D9E2D0E94573DF601668B67
:10319000778B808F918F6A9C80016B9C100D11241E
:1031A000035C1E4FF801A2A0B3A0C4A0D5A0A60145
:1031B000950166897789808D918D0E941C3D181636
:1031C0002CF4F801A68AB78AC08ED18ECF5FC031A9
:1031D00009F4C0E0F72C8401DE2DA8CF8F2D902FAD
:1031E000A12FBD2F8093350190933601A093370115
:1031F000B0933801DF91CF911F910F91FF90EF9025
:10320000DF90CF90BF90AF909F908F907F906F9006
:103210005F9008952F923F924F925F926F927F92AC
:103220008F929F92AF92BF92CF92DF92EF92FF92D6
:103230000F931F93CF93DF93CDB7DEB7CA54D10955
:103240000FB6F894DEBF0FBECDBF98AF8FAB7AAF8D
:1032500069AF10913B01212E312C82E3829D9001B8
:10326000839D300D1124A901435C5E4F5CAF4BAFD1
:10327000DA011D928A95E9F7E9ADFAAD8085DA01A8
:1032800051968C934481558166817781EBADFCAD7D
:1032900046A757A760AB71AB81FF1DC081E191E0EC
:1032A0000E94DE37698F7A8F8B8F9C8F81E191E04E
:1032B0000E94FC376D8F7E8F8F8F98A380911901AC
:1032C00090911A01A0911B01B0911C0189A39AA3AE
:1032D000ABA3BCA309C08CE0EDE1F1E0DE0159969F
:1032E00001900D928A95E1F720910A0730910B0722
:1032F00040910C0750910D07AFA9B8AD6D917D912C
:103300008D919C910E94573D0E94273D4B015C018D
:103310006DA37EA38FA398A720910E0730910F076E
:103320004091100750911107EFA9F8AD64817581A4
:10333000868197810E94573D0E94273D69A77AA701
:103340008BA79CA7C98CDA8CEB8CFC8C8C189D0805
:10335000AE08BF084D8C5E8C6F8C78A04BAA5CAA1F
:103360006DAA7EAA22E3229DF001239DF00D112477
:10337000E35CFE4F6B017C01C418D508E608F70832
:10338000C80CD91CEA1CFB1CF7FE08C0F094E094A2
:10339000D094C094C11CD11CE11CF11CC082D1820C
:1033A000E282F38222E3229DF001239DF00D11249D
:1033B000E35CFE4FCBA8DCA8EDA8FEA8C61AD70A8E
:1033C000E80AF90AC80CD91CEA1CFB1CF7FE08C065
:1033D000F094E094D094C094C11CD11CE11CF11C69
:1033E000C482D582E682F7829E01235F3F4F3EAFC3
:1033F0002DAF2AE0E22E27E0F22E22E3129F2001D9
:10340000112425965FAE4EAE25974DAC5EAC21964D
:103410005FAE4EAE219700E010E0D12CE2E3E29DDA
:103420009001E39D300D1124F901E35CFE4F9F01F3
:10343000245F3F4F23963FAF2EAF239724013501E2
:10344000461A570A680A790A2BA93CA94DA95EA910
:10345000420E531E641E751E2B964CAE5DAE6EAEB4
:103460007FAE2B97860E971EA81EB91E821A930A4E
:10347000A40AB50A3F0130E1630E711C2F0148E038
:10348000440E511C2596EEADFFAD2597E00FF11FC0
:10349000E35CFE4F2396AEADBFAD23974D915D919A
:1034A0006D917C9180819181A281B3818417950770
:1034B000A607B70710F4DB01CA012396EEADFFADF6
:1034C000239780839183A283B383D11003C0C50166
:1034D000B4012BC0B1E0DB120EC02B966CAD7DADFC
:1034E0008EAD9FAD2B970E94BB3BF70120813181B0
:1034F0004281538121C0E5E2F0E0EC0FFD1FE00FB7
:10350000F11F80819181A281B381E9E1F0E0EC0FAC
:10351000FD1FE00FF11F2081318142815381BC01E9
:10352000CD01621B730B840B950B0E94BB3BD70133
:103530002D913D914D915C910E94203B2196EEADE5
:10354000FFAD219761937193819391932196FFAF82
:10355000EEAF219720E030E0A9010E94193B87FFE0
:1035600007C08D2D0E94B62AD3019C91892B8C9384
:10357000D394B3E0DB16C9F152E0D51230C02091EC
:103580001207309113074091140750911507AFA906
:10359000B8AD18966D917D918D919C911B970E946D
:1035A000573D0E94273D6DA77EA78FA798AB29A105
:1035B0003AA14BA15CA1DC01CB01821B930BA40BB4
:1035C000B50BB7FF07C0B095A095909581959F4F1B
:1035D000AF4FBF4FF20180839183A283B3830C5F0F
:1035E0001F4FF4E0EF0EF11C4DCF82E3829D80016E
:1035F000839D100D1124035C1E4FF8018485958571
:10360000A685B785892B8A2B8B2B09F4AAC1CE01FD
:103610000D960E948B15D8015E966D937D938D93C8
:103620009C939197BE01635F7F4F82E297E00E9477
:103630000716F801628F738F848F958FBE01635FC9
:103640007F4F86E197E00E940716D80196966D930A
:103650007D938D939C9399975196FC90F0FE06C0B4
:10366000F80162A773A784A795A71AC0A9ADBAAD40
:103670006D917D918D919C91F80162A773A784A7AC
:1036800095A7F3FE0DC0268D378D40A151A10E9454
:10369000573DD8019A966D937D938D939C939D97FA
:1036A00090913B0180913C01981711F0F1FE0DC003
:1036B00082E3829DF001839DF00D1124E35CFE4FB7
:1036C000128A138A148A158A54C0E9E2F1E0FCAB2D
:1036D000EBAB8E010F5F1F4F9E01275E3F4F3AAB52
:1036E00029ABC12CD12C76010FAB19AFABA9BCA96A
:1036F0008D909D90AD90BD90BCABABABEDADFEADF4
:103700004190519061907190FEAFEDAFA301920195
:10371000C501B4010E94573D9B01AC01C701B60130
:103720000E943F3A6B017C01A5019401C301B201E3
:103730000E943F3AD8016D937D938D939D938D01A7
:103740004DAC5EAC69A87AA84614570479F62FEE02
:103750003FEF4FE75FE3C701B6010E941C3D18161B
:103760006CF482E3829DF001839DF00D1124E35CF3
:10377000FE4F12A213A214A215A274C02FEE3FEFA7
:103780004FE75FEBC701B6010E94193B87FF11C0ED
:1037900082E3829DF001839DF00D1124E35CFE4FD6
:1037A00089E996E7A6E9BEE782A393A3A4A3B5A3FC
:1037B00059C08FA999AD0E948B156FA979AD82E28E
:1037C00097E00E9407164B015C01A701960160E09B
:1037D00070E080E89FE30E943F3A20E030E040E064
:1037E0005FE30E94573D0E94E43D6B017C01209104
:1037F0003F07309140074091410750914207C50172
:10380000B4010E94573DA70196010E94573D4B010C
:103810005C01A701960160E070E080E89FE30E94F0
:103820003F3A9B01AC01C501B4010E94203B7B01E2
:103830008C0120E030E0A9010E94193B87FF04C001
:10384000E12CF12C00E010E082E3829DF001839DE9
:10385000F00D1124E35CFE4FA701B80142A353A36E
:1038600064A375A382E3829D8001839D100D1124C2
:10387000035C1E4FD80151968C9181FD74C08BADB5
:103880009CAD0E9409186B017C01809035019090DD
:103890003601A0903701B0903801A50194010E9433
:1038A0001C3D181664F4A5019401C501B4010E94E1
:1038B000573DF801668B778B808F918F0DC0A701E4
:1038C0009601C701B6010E94573DD80156966D93E7
:1038D0007D938D939C93599782E3829D8001839D74
:1038E000100D1124035C1E4FF80182A093A0A4A028
:1038F000B5A0A501940166897789808D918D0E947C
:103900001C3D18163CF4D80156968D929D92AD92AE
:10391000BC925997C0923501D0923601E09237019E
:10392000F09238018CE0FE013D96A9E2B1E00190F1
:103930000D928A95E1F78CE0FE01B596ADE1B1E01C
:1039400001900D928A95E1F780913A0180933B01B5
:103950008F5F803109F480E080933A010E945D1608
:1039600002C080E001C081E0C65BDF4F0FB6F89473
:10397000DEBF0FBECDBFDF91CF911F910F91FF90A2
:10398000EF90DF90CF90BF90AF909F908F907F90FF
:103990006F905F904F903F902F900895CF93C0E02D
:1039A000C1110DC081E191E00E94DE3760931D01DD
:1039B00070931E0180931F01909320011FC0C1309E
:1039C00069F481E191E00E94FC37609321017093DA
:1039D0002201809323019093240110C0809119014A
:1039E00090911A01A0911B01B0911C0180932501B7
:1039F00090932601A0932701B0932801CF5FC33095
:103A000079F6CF91089590913B0180913C019817F0
:103A100010F0815F01C08150891B08950E94212F01
:103A200080913C01809339010C945D16CF93DF9314
:103A3000EC018991882319F00E94B426FACFDF9116
:103A4000CF910895CF93DF93FC018491EF012196EC
:103A5000882321F00E94B426FE01F7CFDF91CF9199
:103A60000895CF93DF93843630F06AE00E94443E9D
:103A7000C0E3C90F03C0C0E08A3030F06AE00E94A2
:103A8000443ED0E3D90F01C0D0E0805D0E94B4264F
:103A9000DD2319F08D2F0E94B426CC2329F08C2F22
:103AA000DF91CF910C94B426DF91CF9108958F923E
:103AB0009F92AF92BF92CF92DF92EF92FF920F93BD
:103AC0001F93CF93DF93CDB7DEB72D970FB6F89442
:103AD000DEBF0FBECDBF6B017C01042F20E030E0C4
:103AE000A9010E94193B87FF07C08DE20E94B426FE
:103AF000F7FAF094F7F8F094102F123060F020E00D
:103B000030E048EC52E4C701B6010E94573D6B011A
:103B10007C011250F2CF00FF0AC020E030E040E20A
:103B200051E4C701B6010E94573D6B017C0120E0C2
:103B300030E040E05FE3C701B6010E94403A0E94D6
:103B4000883B10E03AE0832E912CA12CB12C61151A
:103B500071058105910591F0EE24E394F12CEC0EB2
:103B6000FD1EE10EF11CA50194010E94643E605D02
:103B7000F7016083B901CA011F5FE9CF80E3101725
:103B800048F4E1E0F0E0EC0FFD1FE10FF11D808350
:103B90001F5FF5CF101314C011E0100F80E3FE017A
:103BA000E00FF11D81830CC0101303C08EE20E9450
:103BB000B426FE01E10FF11D80810E94B426115050
:103BC0001111F2CF2D960FB6F894DEBF0FBECDBF08
:103BD000DF91CF911F910F91FF90EF90DF90CF90E9
:103BE000BF90AF909F908F90089520914F0720FF36
:103BF00008C02BE832E441E25DE30E94573D44E017
:103C000001C043E00C94571D20914F0720FF08C0CE
:103C10002BE832E441E25DE30E94573D41E001C000
:103C200040E00C94571D10921F0690914F0797FD8E
:103C300003C090E290931F06882331F090911F06F5
:103C400080E2892780931F0608953D98459A80E079
:103C50000C94131E86B1807290911F0689270895D7
:103C60000E942A1E882381F0109204018CE0E1E179
:103C7000F1E0A5E0B1E001900D928A95E1F7809125
:103C8000030180648093030108950E94D817892B53
:103C900019F082E00C9453380895CF93C09102013B
:103CA000CC23C1F081E080930E068C2F0E9403226A
:103CB000C150C23020F08FEF0E94173A0BC081E054
:103CC0000E94132280E10E94073A8091030184FF41
:103CD000FCCFF1CFC0910301CC2309F4F6C0C4FF9F
:103CE00004C081E080930F0675C1C0FF05C00E942B
:103CF000DB2481E00E94073A8C2F887E09F462C0A1
:103D000080910E06982F937009F04BC08872A1F035
:103D100080911006807C81F40E94212F82E08093A4
:103D2000120680910E06803239F4C7FD05C08091DD
:103D3000100680688093100680910E06811103C0E2
:103D400091E090931006C6FF07C085FD05C09091D5
:103D50001006906490931006C3FF05C0807E19F48E
:103D600080E180930E06C5FF1CC086E00E941322EE
:103D70008091100687FD10C090910E06903439F4A2
:103D800083FF07C0837E82608093100602C0903854
:103D900019F080E480930E06809110068062809373
:103DA0001006C7FF0CC080910E06813029F4809167
:103DB000100685608093100680E880930E0688EEDA
:103DC0000E94073AC1FF44C08C2F8876F1F580919C
:103DD0000E06803471F48091100685FD0AC084FFC0
:103DE00003C010920E0605C082FF03C08860809356
:103DF000100680910E06882381F084FF26C09091E2
:103E0000100690FF22C0803141F48091180688236B
:103E100021F088608093180618C0109212060E9444
:103E2000D817892B71F08091100686FD0AC0109278
:103E3000100688E080930E060E94452F0E94062CF3
:103E400004C01092100610920E0682E00E94073AFB
:103E5000C2FF3BC080910E06807D909110068823A2
:103E6000A9F080911106811111C097FD0FC00E9429
:103E70000E1D8091120681FF05C090911006916081
:103E800090931006897F809312061CC097FF0AC08A
:103E9000109212060E94B2170E94CC2E0E94A1021C
:103EA0000E94CE1C8091100685FF08C08F7781602C
:103EB0008093100680E480930E0604C010921006D2
:103EC00010920E0684E00E94073AC0910101CC23B3
:103ED00081F10E94333A30911506C0FF02C084E69A
:103EE00001C0832FC1FD865FC2FD8A50C3FD8F5F75
:103EF000C4FD8150893C08F088EC8A3008F48AE0DF
:103F000020911606C5FF02C094E601C0922FC6FD9F
:103F100092E3C7FD99E1831302C0921751F0809399
:103F2000150690931606109219060E947C180E949E
:103F30000E1DC0910001CC2309F445C00E94393AFE
:103F400090911706C0FF02C084E601C0892FC1FD11
:103F5000865FC2FD8A50C3FD8F5FC4FD8150893CDE
:103F600008F088EC8A3008F48AE0891749F09091CB
:103F70001206986090931206809317061092190605
:103F800080910E06C5FF0DC0803159F4909118063E
:103F9000911102C092E003C090FF03C0946090931F
:103FA0001806C07C81F0882311F0887161F0C091FF
:103FB0009E05C6FF02C0CF7B01C0C0648C2F0E944B
:103FC000BC01C0939E0580910E068C7F19F0CF91A5
:103FD0000C94452FCF910895CF92DF92EF92FF92EC
:103FE0001F93CF93DF930E944D1E8091100688236C
:103FF00009F4EEC00E94D817009771F4C0919E0595
:1040000080919F05C82BC090A005D090A105E0909D
:10401000A205F090A30506C0FC01C189C6A4D7A4DF
:10402000E0A8F1A880914F0781FF03C080E20E94C1
:104030002A3ADC2FD07311E0C074909110069923B6
:1040400009F4C6C080910F068111C2C090FFBDC0A7
:1040500080910E06282F207C09F473C092FD12C0B7
:104060001092180640E050E0BA0180E00E94B62BA2
:1040700080E00E94BC01909110069D7F9460909317
:104080001006A3C08038A9F48BE00E94132240E000
:1040900050E0BA0180E00E94B62B80E00E94BC0193
:1040A0000E941E2C80910F06811192C00E944D1E0D
:1040B000F9CF803449F40E943637811105C08091D0
:1040C00010068F7D809310068091100683FF7DC0BF
:1040D00090919F059923C1F081FD16C080914F07F3
:1040E00081FF06C0809112068860809312060CC082
:1040F000B701A6018D2F0E94B62B41E060E070E071
:1041000080E890E40E94291580919E05882371F033
:104110008091100681FD0AC08C2F0E94BC0141E0F5
:1041200060E070E080E89FE30E94291590911006FE
:1041300091FD4BC090619093100682E00E9453382D
:1041400044C090911806992391F191FF0DC0809180
:104150009F058823B1F040E050E0BA0180E00E9462
:10416000B62B1093180631C09C7079F180919F0591
:1041700081110AC08091180683FF03C082E00E946B
:1041800053381092180621C08AE00E9413228091B1
:104190004F0781FF06C08091120688608093120647
:1041A000E9CFB701A6018D2F0E94B62BE3CF8091F6
:1041B000120683FF0AC0B701A6018D2F0E94B62BFD
:1041C00080911206877F809312060E944D1E35CF84
:1041D000DF91CF911F91FF90EF90DF90CF900895E6
:1041E000CF93DF9380914F0783FF0AC00E94220D77
:1041F000882331F081E080930E0687E00E9413222D
:1042000080910E06817839F082E00E94132281E0CD
:1042100080930E0630C010920E060E943637882317
:1042200039F0809103018062809303010E94EC1FAA
:104230008DE594E00E9438371EC08D3061F0DD239B
:1042400099F1893209F4DD7F0E94FA268F3F09F443
:104250004AC08A3091F70E94EC1F80910F068111AD
:104260004BC0EC2FF0E0E35AFB4F1082D0FF06C0AA
:104270008BE00E94F021C0E0D0E0E6CF80915D04A9
:104280008823B9F3843229F48DE594E00E945C38E8
:10429000F0CF80910E06817211F089E0EACF8DE5B2
:1042A00094E00E94A702E5CF813270F28F3261F272
:1042B000883299F08B3399F0CF3498F42C2F30E07A
:1042C000E1E0EC0F9FE9980FD901A35ABB4F9A3157
:1042D00008F480528C93CE2FB7CFD2E0B5CFD4E084
:1042E000B3CFD1E0B1CF0E94451E0E94EC1F809158
:1042F0000F06882309F4A8CFDF91CF9108950E947B
:10430000451E0E94EC1F80910F06811108C00E947B
:10431000D817892BB1F780910E06883091F3089554
:104320008DE293E00C94221D8DE50E94B4260C943E
:104330009021CF93DF93EC01688179818A819B8101
:104340000E94F51D8CE20E94B4266C817D818E81D5
:104350009F810E94F51D8CE20E94B42668857985B4
:104360008A859B85DF91CF910C94F51DCF93C82F43
:1043700084E20E94B4268C2F0E94311D8DE3CF91E0
:104380000C94B426CF93DF931F92CDB7DEB7698329
:104390000E94B6216981862F0E94311D0F90DF9106
:1043A000CF910C949021CF92DF92EF92FF92CF9316
:1043B000DF931F92CDB7DEB76A017B0129830E948C
:1043C000B6212981422FC701B6010E94571D0F90C7
:1043D000DF91CF91FF90EF90DF90CF900C949021E0
:1043E000CF93811105C087E393E0CF910C94221DF8
:1043F000C82F80E393E00E94221D8C2F0E94311D64
:10440000CF910C949021CF93C82F86E293E00E9425
:10441000221D8C2F0E94311D0E94902184EF91E07B
:10442000CF910C945A15CF93C82F80E293E00E944D
:10443000221D8C2F90E0FC013197EB30F10530F517
:10444000E75BFF4F0C94A53E8EE093E01DC08AEF22
:1044500092E01AC088EE92E017C080EE92E014C09D
:1044600087ED92E011C08CEC92E00EC08FEB92E0F1
:104470000BC087EB92E008C084EA92E005C082E9B5
:1044800092E002C089E892E00E94221DCF910C9434
:10449000942189E692E00C94221D8FE192E00C9425
:1044A000221DEF92FF920F931F93CF93DF936091A2
:1044B0003A0770E080E00E94C22160913D0770E001
:1044C00081E00E94C22160913B0770E082E00E947F
:1044D000C22160913C0770E083E00E94C22160919C
:1044E0004F0762FB662760F970E084E00E94C221FA
:1044F00060914F0766FB662760F970E085E00E94D7
:10450000C22180914F07082E000C990B692F661F5E
:104510006627661F70E086E00E94C22160913E0718
:1045200070E08AE00E94C22140913F07509140070D
:10453000609141077091420723E08BE00E94D321F4
:104540004091430750914407609145077091460799
:1045500023E08CE00E94D32160914F07617070E0EE
:104560008DE00E94C22160914F0765FB662760F9CC
:1045700070E084E10E94C22160914F0763FB6627CF
:1045800060F970E085E10E94C22160914F07629559
:10459000617070E086E10E94C2216091500770E076
:1045A00087E10E94C22140915107509152076091CA
:1045B00053077091540723E088E10E94D321409172
:1045C000550750915607609157077091580723E09F
:1045D00089E10E94D3216091590770915A078AE1BD
:1045E0000E94C22140915B0750915C0760915D077A
:1045F00070915E0723E08BE10E94D3214091470731
:10460000509148076091490770914A0720E08EE178
:104610000E94D32140914B0750914C0760914D0768
:1046200070914E0720E08FE10E94D32160914F07E7
:104630006695617070E080E20E94C221D4E6F12CA0
:104640000AE017E083E0E82EED0ECD2F82E0F816A9
:1046500091F0E3E0FE16E9F0F1E0FF1631F0F80129
:1046600040815181628173811AC0F801448555856A
:104670006685778514C020E030E041E655E4F80116
:10468000608D718D828D938D0E94203BAB01BC01AA
:1046900006C0F80144A155A166A177A1705823E096
:1046A0008C2F0E94D3210C5F1F4FCF5FCE11CECF36
:1046B000D65FF394DC3821F6DF91CF911F910F91F3
:1046C000FF90EF900895CF93DF93CDB7DEB72C978F
:1046D0000FB6F894DEBF0FBECDBF89E192E00E9415
:1046E000221D65E071E0CE0101960E94C337CE0124
:1046F00001960E9499218AE30E94B42680911306B4
:104700000E94311D0E9494212C960FB6F894DEBFB2
:104710000FBECDBFDF91CF9108951F93CF93DF934D
:10472000CDB7DEB72C970FB6F894DEBF0FBECDBF66
:1047300010E0BE016F5F7F4F812F0E9443298111DE
:104740000AC080E393E00E94221D87E00E94311D91
:104750000E9490213CC086E192E00E94221D16300A
:1047600029F0173041F480E192E002C083E192E049
:104770000E94221D04C086E3810F0E94311D8AE33E
:104780000E94B426CE0101960E9499210E94942194
:104790001F5F183071F68AE092E00E94221D85ECBE
:1047A00095E00E9499210E94942184E092E00E9469
:1047B000221D6091D1057091D2058091D305909111
:1047C000D4050E94F51D0E9494210E9463232C961B
:1047D0000FB6F894DEBF0FBECDBFDF91CF911F9112
:1047E00008958EEF91E00E94221D809196058C38ED
:1047F00038F08AEF91E00E94221D809196058A5838
:104800000E94311D8EEE91E00E94221D80919C0538
:104810008A5C0E94311D8EEE91E00E94221D8091E3
:104820009A058F5E0E94311D8EEE91E00E94221D3E
:104830009091980585E1891B0E94311D8EEE91E0D3
:104840000E94221D80919905865A0E94311D8EEE8C
:1048500091E00E94221D909197058EE5891B0E9490
:10486000311D80919D05882399F08BEE91E00E9487
:10487000221D80919D05833029F08E3139F08230E0
:1048800039F404C080E30E94B42602C00E94311DA6
:104890008BEE91E00E94221D80919F05803131F0C6
:1048A000803231F0811107C085E303C083E301C08A
:1048B00084E30E94B4268BEE91E00E94221D809139
:1048C0009E05882311F088E301C089E30E94B42685
:1048D00087EF91E00E94221D8091A8050E94311D62
:1048E00084EF91E00E94221D6091A4057091A505BE
:1048F0008091A6059091A7050E94041E81EF91E08A
:104900000E94221D6091A0057091A1058091A205D1
:104910009091A30540E00E94571D0C9494211F9391
:10492000CF93DF93182FEB0188EE91E00E94221DB8
:10493000812F0E94311D8DE30E94B426CE010E947A
:10494000161DDF91CF911F910C9490210F931F930F
:10495000CF93DF931F92CDB7DEB78C018EE36983CF
:104960000E94B426C8010E94161D8AE30E94B42644
:104970006981862F0F90DF91CF911F910F910C9439
:10498000F021CF93DF93EC0182ED91E00E94221D94
:10499000CE010E94161D0E9494218CEC91E00E9491
:1049A000221D86E50E94B42683E40E94B426DF918E
:1049B000CF910C9494214F925F926F927F92AF921D
:1049C000BF92CF92DF92EF92FF920F931F93CF93FC
:1049D000DF93CDB7DEB7A4970FB6F894DEBF0FBE56
:1049E000CDBF8CE0E1E1F1E0DE01599601900D923E
:1049F0008A95E1F7BE01675E7F4FCE010D960E945A
:104A0000C3378CE30E94B42680910E068830E1F013
:104A100058F4813099F1A8F0823099F1843009F08E
:104A200043C084EB91E03EC0803229F118F480311C
:104A300071F03AC0803441F18038B1F58CE991E0F1
:104A400031C087EC91E02EC083EC91E02BC08091C7
:104A5000100687FD10C08DEB91E00E94221D809111
:104A6000100680FF06C080E31AC082FF17C085FFD2
:104A7000FACF81E314C089EB91E014C08EEA91E093
:104A800011C088EA91E00EC082EA91E00E94221DE6
:104A90008091100683FFE9CF83E301C082E30E9487
:104AA000B42602C00E94221D80913E07282F21704B
:104AB000E22E80FF07C080911A06882319F085E94D
:104AC00091E053C04090D1055090D2056090D3053D
:104AD0007090D40589EBA82E85E0B82E8E010F5F6B
:104AE0001F4FCE010D966C01F12CF5016191719172
:104AF000819191915F0120853185428553850E9486
:104B0000403AF8016083718382839383F2E0FF125D
:104B10000CC0A30192010E94403AF80160837183A6
:104B200082839383EE2019F0CACFE11011C0F801FF
:104B30002081318142815381F601608171818281BE
:104B400093810E943F3AF60160837183828393834D
:104B5000F3940C5F1F4FF4E0CF0ED11C23E0F21250
:104B6000C4CFE110ACCF8EE891E00E94221DCE01AF
:104B70000D960E94992180913E0781FF0FC089E820
:104B800091E00E94221D0E94031D0E94311D8CE2B3
:104B90000E94B4260E9499260E94311D84E891E06B
:104BA0000E94221D0E94CD360E94041E8CE20E94AB
:104BB000B42660911B0670911C0680911D06909191
:104BC0001E0640E00E94571D0E94220D082F0E94E1
:104BD000EF36182F0E942A1EF82E912F902B982B1B
:104BE00059F18FE791E00E94221DFF2019F080E526
:104BF0000E94B426002379F000FF03C088E50E94DC
:104C0000B42601FF03C089E50E94B42602FF03C059
:104C10008AE50E94B426112379F010FF03C082E5D3
:104C20000E94B42611FF03C088E40E94B42612FF3C
:104C300003C083E50E94B42680911A06882321F0E0
:104C4000815080931A0618C080910E068C7711F05F
:104C50008DE101C089E080931A06809119068111C7
:104C600003C081E08093190689E791E00E94221D2C
:104C7000CE0101960E94992180911906882321F086
:104C80008150809319063BC080910E068C7711F0FD
:104C900083E101C089E08093190684E791E00E94D6
:104CA000221D809115060E94311D8CE20E94B426BF
:104CB000809116060E94311D8CE20E94B4268091DC
:104CC00017060E94311D0E94CA2A182F0E94B201A5
:104CD000082F111102C0882391F080E791E00E9413
:104CE000221D112339F0113011F483E501C083E452
:104CF0000E94B42600FF03C086E40E94B4268EE31F
:104D00000E94B4260E949021A4960FB6F894DEBFAC
:104D10000FBECDBFDF91CF911F910F91FF90EF900C
:104D2000DF90CF90BF90AF907F906F905F904F904B
:104D300008958091AF049091B004981710F08058B6
:104D400001C08150891B0895E0ECF0E08081826011
:104D500080831092C50080E18093C400E1ECF0E014
:104D60008081886980830895E091AE0491E09E0F70
:104D7000993631F490E004C02091030124FD0FC066
:104D80002091AD049217C1F3F0E0E05EF94F80830B
:104D90009093AE048091C10080628093C100089519
:104DA0001F920F920FB60F9211248F939F93EF9340
:104DB000FF938091AD04E82FF0E0E05EF94F908121
:104DC0009093C6008F5F893609F480E08093AD042C
:104DD0009091AE04891305C08091C1008F7D8093AE
:104DE000C100FF91EF919F918F910F900FBE0F9097
:104DF0001F9018959091AF048091B004891761F0CD
:104E0000E92FF0E0E757F94F80819F5F913809F46F
:104E100090E09093AF0408958FEF08951F920F9242
:104E20000FB60F9211242F933F934F935F936F937D
:104E30007F938F939F93AF93BF93EF93FF93E091F3
:104E4000C600EF3371F020F4E13289F488E00CC041
:104E5000E23521F0EE3759F482E006C00E944B148F
:104E60004DC081E001C080E20E94533847C0E7FF97
:104E700034C08E2F90E0FC01E458F109ED31F105CA
:104E8000E8F5EC5AFF4F0C94A53E80910E0685FF85
:104E900035C080E4E9CF81E00DC082E00BC084E042
:104EA00009C088E007C080E105C080E203C080E45B
:104EB00001C080E80E94213A21C081E00BC082E05D
:104EC00009C084E007C088E005C080E103C080E23B
:104ED00001C080E40E942A3A11C0A091B00481E090
:104EE0008A0F813809F480E09091AF04891731F07E
:104EF000B0E0A757B94FEC938093B004FF91EF91C6
:104F0000BF91AF919F918F917F916F915F914F91E1
:104F10003F912F910F900FBE0F901F901895809189
:104F2000B0048093AF040895CF93DF9300D01F9215
:104F3000CDB7DEB76A837B8389830E947F21898115
:104F400021E5829FC001112440E550E06A817B8108
:104F50009D5F0F900F900F90DF91CF910C940A02FC
:104F600040E550E0BC018EEA93E00C940A02CF9336
:104F7000DF9300D01F92CDB7DEB76A837B8389832E
:104F80000E947F2189812DE0829FC00111244CE085
:104F900050E06A817B819E5F0F900F900F90DF91B0
:104FA000CF910C940A026AE080E090E00E94E80150
:104FB00045E550E06AE077E081E090E00C940A0279
:104FC000EF92FF920F931F93CF93DF93CDB7DEB78E
:104FD0002C970FB6F894DEBF0FBECDBF182F80FF01
:104FE000DFC08AE080933A0789E180933D0787E03C
:104FF00080933B0783E080933C0780933E074AE021
:1050000057ED63EA7CE340933F075093400760937A
:105010004107709342074FE652E163E07BE3409320
:10502000430750934407609345077093460740E059
:1050300050E06AE774E44093470750934807609351
:10504000490770934A0710924B0710924C07109231
:105050004D0710924E078093500780E090E0AAEF32
:10506000B3E48093510790935207A0935307B093F2
:10507000540780E090E8ABE3B5E480935507909344
:105080005607A0935707B093580788EE93E0909384
:105090005A078093590780E090E0A0E7B1E480933D
:1050A0005B0790935C07A0935D07B0935E0782E176
:1050B00080934F0780E090E0A0EAB2E480930A0773
:1050C00090930B07A0930C07B0930D0780930E07E6
:1050D00090930F07A0931007B093110780E090E022
:1050E000A8E4B2E48093120790931307A0931407E7
:1050F000B093150780E090E4ACE9B5E4809316071F
:1051000090931707A0931807B093190780931A0775
:1051100090931B07A0931C07B0931D0780931E0755
:1051200090931F07A0932007B093210780E09AEB8C
:10513000ABEDB9E48093220790932307A093240753
:10514000B09325078093260790932707A0932807FD
:10515000B093290780932A0790932B07A0932C07DD
:10516000B0932D0780E090E0A1E9B3EC80932E0787
:1051700090932F07A0933007B093310780933207A5
:1051800090933307A0933407B09335078093360785
:1051900090933707A0933807B09339070E94D3271D
:1051A00011FF10C0CE0101967C018CE0F701119235
:1051B0008A95E9F700E0B701802F0E94B7270F5FBB
:1051C0000830C9F712FF14C060E080E093E00E944D
:1051D000E80160E081E093E00E94E80160E081E5A1
:1051E00093E00E94E80160E082E593E00E94E8011C
:1051F00013FF0AC060E08EEA93E00E94E80160E0DD
:105200008FEA93E00E94E8012C960FB6F894DEBF77
:105210000FBECDBFDF91CF911F910F91FF90EF9007
:1052200008951F93CF93DF93182FEB0181E5189F0B
:10523000B00111247D5F40E550E0CE010E9449029B
:10524000892B39F41882BE01812F0E94942780E0B7
:1052500001C081E0DF91CF911F910895CF93DF933B
:10526000EC0140E550E06EEA73E00E944902892BB0
:1052700031F41882CE010E94B02780E001C081E0A5
:10528000DF91CF9108951F93CF93DF93182FEB01F8
:105290008DE0189FB00111247E5F4CE050E0CE01FC
:1052A0000E944902892B59F48CE0FE0111928A95E3
:1052B000E9F7BE01812F0E94B72780E001C081E09D
:1052C000DF91CF911F91089580E090E00E94E0016E
:1052D0008A3059F445E550E061E070E08AE097E0FB
:1052E0000E94490221E0892B09F420E0822F0895D1
:1052F000CF92DF92EF92FF92CF93DF93C82F6A0194
:105300007B0120E030E0A901C701B6010E94193BF2
:1053100087FD07C1C43608F441C08CE98C0F20E03A
:10532000833098F590E0880F991F880F991F2230DD
:1053300059F0FC012330F1F0213019F0E65FF84F0D
:105340001FC0EA5EF84F1CC0EC01CE5DD84F20E0D4
:1053500030E040E752E4C701B6010E94573D20E02B
:1053600030E040E752E40E94573D688379838A83A6
:105370009B83D3C0E25DF84FF7FAF094F7F8F0940E
:10538000C082D182E282F382C8C02F5F8A3008F4E3
:10539000CAC0243009F4C7C08A50C2CFC701B601C1
:1053A0000E94253E0E948D3B8C2F90E0813291051A
:1053B00008F0B9C0FC01EF58FF4F0C94A53E6330D4
:1053C00008F4B3C060933A07A8C060933D07A5C036
:1053D00060933B0702C060933C070E94922E9DC0E1
:1053E00080914F07662311F0846095C08B7F93C036
:1053F00080914F07662311F080648DC08F7B8BC036
:1054000080914F07662311F0806801C08F778093E9
:105410004F0780E00E94131E80C060933E077DC04E
:10542000C0923F07D0924007E0924107F0924207B6
:1054300074C0C0924307D0924407E0924507F092AF
:1054400046076BC080914F07662311F0816001C051
:105450008E7F80934F070E9458375FC080914F071F
:10546000662321F084FF63C0806255C08F7D53C0E6
:1054700080914F07662311F0886001C0877F809379
:105480004F070E940B0D49C080914F07662311F012
:10549000806141C08F7C3FC0609350073EC0C09286
:1054A0005107D0925207E0925307F092540735C04B
:1054B000C0925507D0925607E0925707F0925807CE
:1054C0002CC070E070935A076093590726C0C092B1
:1054D0005B07D0925C07E0925D07F0925E071DC00B
:1054E000C0924707D0924807E0924907F0924A07D6
:1054F00008C0C0924B07D0924C07E0924D07F09243
:105500004E070E94DC2A09C080914F07662311F0E4
:10551000826001C08D7F80934F070E94D32780E077
:1055200007C084E005C083E003C086E001C08AE0D4
:10553000DF91CF91FF90EF90DF90CF9008950E9480
:105540006429811108C087E00E94F0218FEF0E943A
:10555000E0270C9451220895882321F0813021F016
:1055600080E1089584E0089588E00895882321F07B
:10557000813021F080E8089580E2089580E4089564
:10558000882321F0813021F080E1089582E00895A0
:1055900084E008958091B00087FF04C02D9904C075
:1055A00081E0089580E0089582E00895E0EBF0E066
:1055B00080818F7780830895239A83E08093B00061
:1055C00084E08093B100259A20914B0730914C07DD
:1055D00040914D0750914E076091470770914807E1
:1055E0008091490790914A070E943F3A9B01AC0184
:1055F00060E070E08EE793E40E94203B6093B1048A
:105600007093B2048093B3049093B4040C94D62A9C
:10561000811102C00C94D62A8093B3008091B0000F
:1056200080688093B00008954F925F926F927F924E
:105630008F929F92AF92BF92CF92DF92EF92FF92A2
:10564000CF936B017C01C091170680904B0790901F
:105650004C07A0904D07B0904E07409047075090E0
:1056600048076090490770904A07A3019201C5015D
:10567000B4010E941C3D87FF1AC06C2F70E080E0CF
:1056800090E00E94BB3B2AE037ED43E25CE30E94DE
:10569000573D9B01AC01C701B6010E94573D6B010C
:1056A0007C01A30192010E941C3D87FD0AC040922B
:1056B0001B0650921C0660921D0670921E068FEF0C
:1056C00047C0A5019401C701B6010E94193B1816F5
:1056D000E4F020E030E0A901C701B6010E94193BC7
:1056E000811109C010921B0610921C0610921D0613
:1056F00010921E062DC080921B0690921C06A0924E
:105700001D06B0921E0681E023C0C0921B06D092F7
:105710001C06E0921D06F0921E06A5019401C70129
:10572000B6010E943F3A2091B1043091B2044091F9
:10573000B3045091B4040E94573D0E94F63B20E010
:1057400030E040E85FE30E94403A0E948D3B862FA4
:10575000CF91FF90EF90DF90CF90BF90AF909F9050
:105760008F907F906F905F904F90089590910F066B
:10577000911123C081110BC010921B0610921C06C0
:1057800010921D0610921E060E94D62A14C0803167
:1057900011F42D9801C02D9A90914F0791FF05C0EB
:1057A000803219F440E050E0BA01CB01BA010E9406
:1057B000142B0E94082B109219060895CF93DF93A3
:1057C00000D000D01F92CDB7DEB790910E06923078
:1057D000A9F04A835B836C837D8389830E947F2148
:1057E0004A815B816C817D8189810F900F900F9040
:1057F0000F900F90DF91CF910C94B62B0F900F90DC
:105800000F900F900F90DF91CF91089580914F07E7
:1058100082FF02C0289A01C028988091EB048093EF
:10582000FD0480913A07880F845081958093FC0491
:1058300080916F00826080936F00089580916F0067
:105840008D7F80936F0080918100887F816080933D
:1058500081001092E90480913D0790910E068F3FE0
:1058600039F420910201211103C0903841F402C0A3
:10587000943029F090E00E945A1581E001C080E048
:1058800090914F0792FF02C091E08927882311F081
:10589000289A0895289808951F920F920FB60F9294
:1058A00011242F933F934F935F936F937F938F9325
:1058B0009F93AF93BF93EF93FF938091E90481117E
:1058C0000AC28BB19091FE04907E8F71892B8BB9A7
:1058D0008BB1837E9091FD04892B8BB98091FC0460
:1058E00086BD82E085BD81E08093E9047894809153
:1058F000100590911105892B09F0BBC08091EE0431
:105900009091ED04981709F4A4C0E091EE042E2FB5
:1059100030E087E0E89FF0011124EE5EFA4FF0934B
:105920001105E09310058281938190938900809303
:1059300088008081918190930C0580930B05E48110
:1059400080910D058E1761F1E0930D0582E1E89FCE
:10595000F0011124E45CFA4FF0930F05E0930E057B
:1059600084859585A685B785B695A79597958795DE
:105970008093F7049093F804A093F904B093FA0489
:105980008093F3049093F404A093F504B093F60489
:105990008093EF049093F004A093F104B093F20489
:1059A000A0910E05B0910F059091EA0450968C914C
:1059B000509789278093FE0487E0829FF001839FA0
:1059C000F00D1124EE5EFA4F25814D915D916D91A0
:1059D0007C911397022E04C076956795579547954D
:1059E0000A94D2F74093FF04509300056093010599
:1059F0007093020514964D915D916D917C9117976E
:105A0000022E04C076956795579547950A94D2F76C
:105A100040930305509304056093050570930605B4
:105A200018968D919D910D90BC91A02D04C0B695B6
:105A3000A795979587952A95D2F780930705909318
:105A40000805A0930905B0930A0586810E94082BDA
:105A500010C00E941E2CE0910E05F0910F05818967
:105A6000882319F080E00E94082B84E00E945338BC
:105A700032C180910401813011F40E94301E1092D5
:105A8000FD044091FF045091000560910105709163
:105A900002058091EF049091F004A091F104B0917F
:105AA000F204840F951FA61FB71F8093EF049093F5
:105AB000F004A093F104B093F204E0910E05F0918C
:105AC0000F054485558566857785481759076A0708
:105AD0007B0768F524E02093FD04448555856685A1
